{
  "_format": "hh-sol-artifact-1",
  "contractName": "DiggVotingShare",
  "sourceName": "contracts/DiggVotingShare.sol",
  "abi": [
    {
      "inputs": [],
      "stateMutability": "nonpayable",
      "type": "constructor"
    },
    {
      "inputs": [
        {
          "internalType": "address",
          "name": "_voter",
          "type": "address"
        }
      ],
      "name": "balanceOf",
      "outputs": [
        {
          "internalType": "uint256",
          "name": "",
          "type": "uint256"
        }
      ],
      "stateMutability": "view",
      "type": "function"
    },
    {
      "inputs": [],
      "name": "decimals",
      "outputs": [
        {
          "internalType": "uint8",
          "name": "",
          "type": "uint8"
        }
      ],
      "stateMutability": "pure",
      "type": "function"
    },
    {
      "inputs": [
        {
          "internalType": "address",
          "name": "_voter",
          "type": "address"
        }
      ],
      "name": "diggBalanceOf",
      "outputs": [
        {
          "internalType": "uint256",
          "name": "",
          "type": "uint256"
        }
      ],
      "stateMutability": "view",
      "type": "function"
    },
    {
      "inputs": [],
      "name": "name",
      "outputs": [
        {
          "internalType": "string",
          "name": "",
          "type": "string"
        }
      ],
      "stateMutability": "pure",
      "type": "function"
    },
    {
      "inputs": [
        {
          "internalType": "address",
          "name": "_voter",
          "type": "address"
        }
      ],
      "name": "rariBalanceOf",
      "outputs": [
        {
          "internalType": "uint256",
          "name": "",
          "type": "uint256"
        }
      ],
      "stateMutability": "view",
      "type": "function"
    },
    {
      "inputs": [
        {
          "internalType": "address",
          "name": "_voter",
          "type": "address"
        }
      ],
      "name": "sushiswapBalanceOf",
      "outputs": [
        {
          "internalType": "uint256",
          "name": "",
          "type": "uint256"
        }
      ],
      "stateMutability": "view",
      "type": "function"
    },
    {
      "inputs": [],
      "name": "symbol",
      "outputs": [
        {
          "internalType": "string",
          "name": "",
          "type": "string"
        }
      ],
      "stateMutability": "pure",
      "type": "function"
    },
    {
      "inputs": [],
      "name": "totalSupply",
      "outputs": [
        {
          "internalType": "uint256",
          "name": "",
          "type": "uint256"
        }
      ],
      "stateMutability": "view",
      "type": "function"
    },
    {
      "inputs": [
        {
          "internalType": "address",
          "name": "_voter",
          "type": "address"
        }
      ],
      "name": "uniswapBalanceOf",
      "outputs": [
        {
          "internalType": "uint256",
          "name": "",
          "type": "uint256"
        }
      ],
      "stateMutability": "view",
      "type": "function"
    }
  ],
  "bytecode": "0x608060405234801561001057600080fd5b506114ae806100206000396000f3fe608060405234801561001057600080fd5b50600436106100935760003560e01c806395d89b411161006657806395d89b4114610122578063a0714fe614610140578063a2d9570014610170578063c956e7fe146101a0578063f4f491c4146101d057610093565b806306fdde031461009857806318160ddd146100b6578063313ce567146100d457806370a08231146100f2575b600080fd5b6100a0610200565b6040516100ad91906111ad565b60405180910390f35b6100be61023d565b6040516100cb91906111cf565b60405180910390f35b6100dc6102d6565b6040516100e991906111ea565b60405180910390f35b61010c6004803603810190610107919061107f565b6102df565b60405161011991906111cf565b60405180910390f35b61012a61032a565b60405161013791906111ad565b60405180910390f35b61015a6004803603810190610155919061107f565b610367565b60405161016791906111cf565b60405180910390f35b61018a6004803603810190610185919061107f565b610379565b60405161019791906111cf565b60405180910390f35b6101ba60048036038101906101b5919061107f565b61038b565b6040516101c791906111cf565b60405180910390f35b6101ea60048036038101906101e5919061107f565b61039d565b6040516101f791906111cf565b60405180910390f35b60606040518060400160405280601181526020017f4469676720566f74696e67205368617265000000000000000000000000000000815250905090565b600073798d1be841a82a273720ce31c822c61a67a601c373ffffffffffffffffffffffffffffffffffffffff166318160ddd6040518163ffffffff1660e01b815260040160206040518083038186803b15801561029957600080fd5b505afa1580156102ad573d6000803e3d6000fd5b505050506040513d601f19601f820116820180604052508101906102d191906110ff565b905090565b60006009905090565b60006102ea826103af565b6102f383610509565b6102fc84610925565b61030585610d41565b61030f9190611221565b6103199190611221565b6103239190611221565b9050919050565b60606040518060400160405280600781526020017f4469676720565300000000000000000000000000000000000000000000000000815250905090565b600061037282610d41565b9050919050565b600061038482610925565b9050919050565b600061039682610509565b9050919050565b60006103a8826103af565b9050919050565b60008073792a676dd661e2c182435aaefc806f1d4abdc48673ffffffffffffffffffffffffffffffffffffffff1663182df0f56040518163ffffffff1660e01b815260040160206040518083038186803b15801561040c57600080fd5b505afa158015610420573d6000803e3d6000fd5b505050506040513d601f19601f8201168201806040525081019061044491906110ff565b9050670de0b6b3a76400008173792a676dd661e2c182435aaefc806f1d4abdc48673ffffffffffffffffffffffffffffffffffffffff166370a08231866040518263ffffffff1660e01b815260040161049d9190611192565b60206040518083038186803b1580156104b557600080fd5b505afa1580156104c9573d6000803e3d6000fd5b505050506040513d601f19601f820116820180604052508101906104ed91906110ff565b6104f791906112a8565b6105019190611277565b915050919050565b6000807388128580acdd9c04ce47afce196875747bf2a9f673ffffffffffffffffffffffffffffffffffffffff166377c7b8fc6040518163ffffffff1660e01b815260040160206040518083038186803b15801561056657600080fd5b505afa15801561057a573d6000803e3d6000fd5b505050506040513d601f19601f8201168201806040525081019061059e91906110ff565b90506000739a13867048e01c663ce8ce2fe0cdae69ff9f35e373ffffffffffffffffffffffffffffffffffffffff16630902f1ac6040518163ffffffff1660e01b815260040160606040518083038186803b1580156105fc57600080fd5b505afa158015610610573d6000803e3d6000fd5b505050506040513d601f19601f8201168201806040525081019061063491906110ac565b509150506000670de0b6b3a764000083737f6fe274e172ac7d096a7b214c78584d99ca988b73ffffffffffffffffffffffffffffffffffffffff16634b341aed886040518263ffffffff1660e01b81526004016106919190611192565b60206040518083038186803b1580156106a957600080fd5b505afa1580156106bd573d6000803e3d6000fd5b505050506040513d601f19601f820116820180604052508101906106e191906110ff565b6106eb91906112a8565b6106f59190611277565b670de0b6b3a7640000847388128580acdd9c04ce47afce196875747bf2a9f673ffffffffffffffffffffffffffffffffffffffff166370a08231896040518263ffffffff1660e01b815260040161074c9190611192565b60206040518083038186803b15801561076457600080fd5b505afa158015610778573d6000803e3d6000fd5b505050506040513d601f19601f8201168201806040525081019061079c91906110ff565b6107a691906112a8565b6107b09190611277565b739a13867048e01c663ce8ce2fe0cdae69ff9f35e373ffffffffffffffffffffffffffffffffffffffff166370a08231886040518263ffffffff1660e01b81526004016107fd9190611192565b60206040518083038186803b15801561081557600080fd5b505afa158015610829573d6000803e3d6000fd5b505050506040513d601f19601f8201168201806040525081019061084d91906110ff565b6108579190611221565b6108619190611221565b9050739a13867048e01c663ce8ce2fe0cdae69ff9f35e373ffffffffffffffffffffffffffffffffffffffff166318160ddd6040518163ffffffff1660e01b815260040160206040518083038186803b1580156108bd57600080fd5b505afa1580156108d1573d6000803e3d6000fd5b505050506040513d601f19601f820116820180604052508101906108f591906110ff565b826dffffffffffffffffffffffffffff168261091191906112a8565b61091b9190611277565b9350505050919050565b60008073c17078fdd324cc473f8175dc5290fae5f2e8471473ffffffffffffffffffffffffffffffffffffffff166377c7b8fc6040518163ffffffff1660e01b815260040160206040518083038186803b15801561098257600080fd5b505afa158015610996573d6000803e3d6000fd5b505050506040513d601f19601f820116820180604052508101906109ba91906110ff565b9050600073e86204c4eddd2f70ee00ead6805f917671f56c5273ffffffffffffffffffffffffffffffffffffffff16630902f1ac6040518163ffffffff1660e01b815260040160606040518083038186803b158015610a1857600080fd5b505afa158015610a2c573d6000803e3d6000fd5b505050506040513d601f19601f82011682018060405250810190610a5091906110ac565b509150506000670de0b6b3a764000083730194b5fe9ab7e0c43a08acbb771516fc057402e773ffffffffffffffffffffffffffffffffffffffff16634b341aed886040518263ffffffff1660e01b8152600401610aad9190611192565b60206040518083038186803b158015610ac557600080fd5b505afa158015610ad9573d6000803e3d6000fd5b505050506040513d601f19601f82011682018060405250810190610afd91906110ff565b610b0791906112a8565b610b119190611277565b670de0b6b3a76400008473c17078fdd324cc473f8175dc5290fae5f2e8471473ffffffffffffffffffffffffffffffffffffffff166370a08231896040518263ffffffff1660e01b8152600401610b689190611192565b60206040518083038186803b158015610b8057600080fd5b505afa158015610b94573d6000803e3d6000fd5b505050506040513d601f19601f82011682018060405250810190610bb891906110ff565b610bc291906112a8565b610bcc9190611277565b73e86204c4eddd2f70ee00ead6805f917671f56c5273ffffffffffffffffffffffffffffffffffffffff166370a08231886040518263ffffffff1660e01b8152600401610c199190611192565b60206040518083038186803b158015610c3157600080fd5b505afa158015610c45573d6000803e3d6000fd5b505050506040513d601f19601f82011682018060405250810190610c6991906110ff565b610c739190611221565b610c7d9190611221565b905073e86204c4eddd2f70ee00ead6805f917671f56c5273ffffffffffffffffffffffffffffffffffffffff166318160ddd6040518163ffffffff1660e01b815260040160206040518083038186803b158015610cd957600080fd5b505afa158015610ced573d6000803e3d6000fd5b505050506040513d601f19601f82011682018060405250810190610d1191906110ff565b826dffffffffffffffffffffffffffff1682610d2d91906112a8565b610d379190611277565b9350505050919050565b600080610e93737e7e112a68d8d2e221e11047a72ffc1065c38e1a73ffffffffffffffffffffffffffffffffffffffff166318160ddd6040518163ffffffff1660e01b815260040160206040518083038186803b158015610da157600080fd5b505afa158015610db5573d6000803e3d6000fd5b505050506040513d601f19601f82011682018060405250810190610dd991906110ff565b610e85670de0b6b3a7640000737e7e112a68d8d2e221e11047a72ffc1065c38e1a73ffffffffffffffffffffffffffffffffffffffff1663b69ef8a86040518163ffffffff1660e01b815260040160206040518083038186803b158015610e3f57600080fd5b505afa158015610e53573d6000803e3d6000fd5b505050506040513d601f19601f82011682018060405250810190610e7791906110ff565b610fff90919063ffffffff16565b61101590919063ffffffff16565b9050670de0b6b3a764000081737e7e112a68d8d2e221e11047a72ffc1065c38e1a73ffffffffffffffffffffffffffffffffffffffff166370a08231866040518263ffffffff1660e01b8152600401610eec9190611192565b60206040518083038186803b158015610f0457600080fd5b505afa158015610f18573d6000803e3d6000fd5b505050506040513d601f19601f82011682018060405250810190610f3c91906110ff565b610f4691906112a8565b610f509190611277565b73798d1be841a82a273720ce31c822c61a67a601c373ffffffffffffffffffffffffffffffffffffffff166370a08231856040518263ffffffff1660e01b8152600401610f9d9190611192565b60206040518083038186803b158015610fb557600080fd5b505afa158015610fc9573d6000803e3d6000fd5b505050506040513d601f19601f82011682018060405250810190610fed91906110ff565b610ff79190611221565b915050919050565b6000818361100d91906112a8565b905092915050565b600081836110239190611277565b905092915050565b60008135905061103a8161141c565b92915050565b60008151905061104f81611433565b92915050565b6000815190506110648161144a565b92915050565b60008151905061107981611461565b92915050565b60006020828403121561109557611094611406565b5b60006110a38482850161102b565b91505092915050565b6000806000606084860312156110c5576110c4611406565b5b60006110d386828701611040565b93505060206110e486828701611040565b92505060406110f58682870161106a565b9150509250925092565b60006020828403121561111557611114611406565b5b600061112384828501611055565b91505092915050565b61113581611302565b82525050565b600061114682611205565b6111508185611210565b9350611160818560208601611375565b6111698161140b565b840191505092915050565b61117d8161134e565b82525050565b61118c81611368565b82525050565b60006020820190506111a7600083018461112c565b92915050565b600060208201905081810360008301526111c7818461113b565b905092915050565b60006020820190506111e46000830184611174565b92915050565b60006020820190506111ff6000830184611183565b92915050565b600081519050919050565b600082825260208201905092915050565b600061122c8261134e565b91506112378361134e565b9250827fffffffffffffffffffffffffffffffffffffffffffffffffffffffffffffffff0382111561126c5761126b6113a8565b5b828201905092915050565b60006112828261134e565b915061128d8361134e565b92508261129d5761129c6113d7565b5b828204905092915050565b60006112b38261134e565b91506112be8361134e565b9250817fffffffffffffffffffffffffffffffffffffffffffffffffffffffffffffffff04831182151516156112f7576112f66113a8565b5b828202905092915050565b600061130d8261132e565b9050919050565b60006dffffffffffffffffffffffffffff82169050919050565b600073ffffffffffffffffffffffffffffffffffffffff82169050919050565b6000819050919050565b600063ffffffff82169050919050565b600060ff82169050919050565b60005b83811015611393578082015181840152602081019050611378565b838111156113a2576000848401525b50505050565b7f4e487b7100000000000000000000000000000000000000000000000000000000600052601160045260246000fd5b7f4e487b7100000000000000000000000000000000000000000000000000000000600052601260045260246000fd5b600080fd5b6000601f19601f8301169050919050565b61142581611302565b811461143057600080fd5b50565b61143c81611314565b811461144757600080fd5b50565b6114538161134e565b811461145e57600080fd5b50565b61146a81611358565b811461147557600080fd5b5056fea264697066735822122066748cdd0d2c695040a6bbad2084866ba03bcd6668db30e934325aeaa2f0651564736f6c63430008070033",
  "linkReferences": {},
  "deployedLinkReferences": {}
}