{
  "_format": "hh-sol-artifact-1",
  "contractName": "BadgerVotingShare",
  "sourceName": "contracts/BadgerVotingShare.sol",
  "abi": [
    {
      "inputs": [],
      "stateMutability": "nonpayable",
      "type": "constructor"
    },
    {
      "inputs": [
        {
          "internalType": "address",
          "name": "_voter",
          "type": "address"
        }
      ],
      "name": "acrossBalanceOf",
      "outputs": [
        {
          "internalType": "uint256",
          "name": "",
          "type": "uint256"
        }
      ],
      "stateMutability": "view",
      "type": "function"
    },
    {
      "inputs": [
        {
          "internalType": "address",
          "name": "_voter",
          "type": "address"
        }
      ],
      "name": "badgerBalanceOf",
      "outputs": [
        {
          "internalType": "uint256",
          "name": "",
          "type": "uint256"
        }
      ],
      "stateMutability": "view",
      "type": "function"
    },
    {
      "inputs": [
        {
          "internalType": "address",
          "name": "_voter",
          "type": "address"
        }
      ],
      "name": "balanceOf",
      "outputs": [
        {
          "internalType": "uint256",
          "name": "",
          "type": "uint256"
        }
      ],
      "stateMutability": "view",
      "type": "function"
    },
    {
      "inputs": [],
      "name": "decimals",
      "outputs": [
        {
          "internalType": "uint8",
          "name": "",
          "type": "uint8"
        }
      ],
      "stateMutability": "pure",
      "type": "function"
    },
    {
      "inputs": [],
      "name": "name",
      "outputs": [
        {
          "internalType": "string",
          "name": "",
          "type": "string"
        }
      ],
      "stateMutability": "pure",
      "type": "function"
    },
    {
      "inputs": [
        {
          "internalType": "address",
          "name": "_voter",
          "type": "address"
        }
      ],
      "name": "rariBalanceOf",
      "outputs": [
        {
          "internalType": "uint256",
          "name": "",
          "type": "uint256"
        }
      ],
      "stateMutability": "view",
      "type": "function"
    },
    {
      "inputs": [
        {
          "internalType": "address",
          "name": "_voter",
          "type": "address"
        }
      ],
      "name": "remBadgerBalanceOf",
      "outputs": [
        {
          "internalType": "uint256",
          "name": "",
          "type": "uint256"
        }
      ],
      "stateMutability": "view",
      "type": "function"
    },
    {
      "inputs": [
        {
          "internalType": "address",
          "name": "_voter",
          "type": "address"
        }
      ],
      "name": "sushiswapBalanceOf",
      "outputs": [
        {
          "internalType": "uint256",
          "name": "",
          "type": "uint256"
        }
      ],
      "stateMutability": "view",
      "type": "function"
    },
    {
      "inputs": [],
      "name": "symbol",
      "outputs": [
        {
          "internalType": "string",
          "name": "",
          "type": "string"
        }
      ],
      "stateMutability": "pure",
      "type": "function"
    },
    {
      "inputs": [],
      "name": "totalSupply",
      "outputs": [
        {
          "internalType": "uint256",
          "name": "",
          "type": "uint256"
        }
      ],
      "stateMutability": "view",
      "type": "function"
    },
    {
      "inputs": [
        {
          "internalType": "address",
          "name": "_voter",
          "type": "address"
        }
      ],
      "name": "uniswapBalanceOf",
      "outputs": [
        {
          "internalType": "uint256",
          "name": "",
          "type": "uint256"
        }
      ],
      "stateMutability": "view",
      "type": "function"
    }
  ],
  "bytecode": "0x608060405234801561001057600080fd5b50611b1d806100206000396000f3fe608060405234801561001057600080fd5b50600436106100a95760003560e01c806370a082311161007157806370a082311461016857806395d89b4114610198578063a2d95700146101b6578063bb0c6e50146101e6578063c956e7fe14610216578063f4f491c414610246576100a9565b806306fdde03146100ae578063166ef501146100cc57806318160ddd146100fc5780631cc5edc91461011a578063313ce5671461014a575b600080fd5b6100b6610276565b6040516100c391906116ea565b60405180910390f35b6100e660048036038101906100e191906115bc565b6102b3565b6040516100f3919061170c565b60405180910390f35b6101046102c5565b604051610111919061170c565b60405180910390f35b610134600480360381019061012f91906115bc565b61035e565b604051610141919061170c565b60405180910390f35b610152610370565b60405161015f9190611727565b60405180910390f35b610182600480360381019061017d91906115bc565b610379565b60405161018f919061170c565b60405180910390f35b6101a06103ea565b6040516101ad91906116ea565b60405180910390f35b6101d060048036038101906101cb91906115bc565b610427565b6040516101dd919061170c565b60405180910390f35b61020060048036038101906101fb91906115bc565b610439565b60405161020d919061170c565b60405180910390f35b610230600480360381019061022b91906115bc565b61044b565b60405161023d919061170c565b60405180910390f35b610260600480360381019061025b91906115bc565b61045d565b60405161026d919061170c565b60405180910390f35b60606040518060400160405280601381526020017f42616467657220566f74696e6720536861726500000000000000000000000000815250905090565b60006102be8261046f565b9050919050565b6000733472a5a71965499acd81997a54bba8d852c6e53d73ffffffffffffffffffffffffffffffffffffffff166318160ddd6040518163ffffffff1660e01b815260040160206040518083038186803b15801561032157600080fd5b505afa158015610335573d6000803e3d6000fd5b505050506040513d601f19601f82011682018060405250810190610359919061163c565b905090565b6000610369826107b6565b9050919050565b60006012905090565b60006103848261046f565b61038d83610a7c565b61039684610bd6565b61039f85610d30565b6103a88661114c565b6103b1876107b6565b6103bb91906117f2565b6103c591906117f2565b6103cf91906117f2565b6103d991906117f2565b6103e391906117f2565b9050919050565b60606040518060400160405280600981526020017f4261646765722056530000000000000000000000000000000000000000000000815250905090565b60006104328261114c565b9050919050565b600061044482610a7c565b9050919050565b600061045682610d30565b9050919050565b600061046882610bd6565b9050919050565b6000807343298f9f91a4545df64748e78a2c777c580573d673ffffffffffffffffffffffffffffffffffffffff16634464fae46040518163ffffffff1660e01b815260040160206040518083038186803b1580156104cc57600080fd5b505afa1580156104e0573d6000803e3d6000fd5b505050506040513d601f19601f82011682018060405250810190610504919061163c565b7343298f9f91a4545df64748e78a2c777c580573d673ffffffffffffffffffffffffffffffffffffffff166366db52406040518163ffffffff1660e01b815260040160206040518083038186803b15801561055e57600080fd5b505afa158015610572573d6000803e3d6000fd5b505050506040513d601f19601f82011682018060405250810190610596919061163c565b7343298f9f91a4545df64748e78a2c777c580573d673ffffffffffffffffffffffffffffffffffffffff1663b20842026040518163ffffffff1660e01b815260040160206040518083038186803b1580156105f057600080fd5b505afa158015610604573d6000803e3d6000fd5b505050506040513d601f19601f82011682018060405250810190610628919061163c565b610632919061175e565b61063c91906118d3565b905060007343298f9f91a4545df64748e78a2c777c580573d673ffffffffffffffffffffffffffffffffffffffff166318160ddd6040518163ffffffff1660e01b815260040160206040518083038186803b15801561069a57600080fd5b505afa1580156106ae573d6000803e3d6000fd5b505050506040513d601f19601f820116820180604052508101906106d2919061163c565b670de0b6b3a7640000836106e69190611879565b6106f09190611848565b9050670de0b6b3a76400007343298f9f91a4545df64748e78a2c777c580573d673ffffffffffffffffffffffffffffffffffffffff166370a08231866040518263ffffffff1660e01b815260040161074891906116cf565b60206040518083038186803b15801561076057600080fd5b505afa158015610774573d6000803e3d6000fd5b505050506040513d601f19601f82011682018060405250810190610798919061163c565b826107a39190611879565b6107ad9190611848565b92505050919050565b6000807319d97d8fa813ee2f51ad4b4e04ea08baf4dffc2873ffffffffffffffffffffffffffffffffffffffff166377c7b8fc6040518163ffffffff1660e01b815260040160206040518083038186803b15801561081357600080fd5b505afa158015610827573d6000803e3d6000fd5b505050506040513d601f19601f8201168201806040525081019061084b919061163c565b9050670de0b6b3a76400008173a9429271a28f8543efffa136994c0839e7d7bf7773ffffffffffffffffffffffffffffffffffffffff16634b341aed866040518263ffffffff1660e01b81526004016108a491906116cf565b60206040518083038186803b1580156108bc57600080fd5b505afa1580156108d0573d6000803e3d6000fd5b505050506040513d601f19601f820116820180604052508101906108f4919061163c565b6108fe9190611879565b6109089190611848565b670de0b6b3a7640000827319d97d8fa813ee2f51ad4b4e04ea08baf4dffc2873ffffffffffffffffffffffffffffffffffffffff166370a08231876040518263ffffffff1660e01b815260040161095f91906116cf565b60206040518083038186803b15801561097757600080fd5b505afa15801561098b573d6000803e3d6000fd5b505050506040513d601f19601f820116820180604052508101906109af919061163c565b6109b99190611879565b6109c39190611848565b733472a5a71965499acd81997a54bba8d852c6e53d73ffffffffffffffffffffffffffffffffffffffff166370a08231866040518263ffffffff1660e01b8152600401610a1091906116cf565b60206040518083038186803b158015610a2857600080fd5b505afa158015610a3c573d6000803e3d6000fd5b505050506040513d601f19601f82011682018060405250810190610a60919061163c565b610a6a91906117f2565b610a7491906117f2565b915050919050565b600080736af7377b5009d7d154f36fe9e235ae1da27aea2273ffffffffffffffffffffffffffffffffffffffff166377c7b8fc6040518163ffffffff1660e01b815260040160206040518083038186803b158015610ad957600080fd5b505afa158015610aed573d6000803e3d6000fd5b505050506040513d601f19601f82011682018060405250810190610b11919061163c565b9050670de0b6b3a764000081736af7377b5009d7d154f36fe9e235ae1da27aea2273ffffffffffffffffffffffffffffffffffffffff166370a08231866040518263ffffffff1660e01b8152600401610b6a91906116cf565b60206040518083038186803b158015610b8257600080fd5b505afa158015610b96573d6000803e3d6000fd5b505050506040513d601f19601f82011682018060405250810190610bba919061163c565b610bc49190611879565b610bce9190611848565b915050919050565b600080736780b4681aa8efe530d075897b3a4ff6ca5ed80773ffffffffffffffffffffffffffffffffffffffff1663182df0f56040518163ffffffff1660e01b815260040160206040518083038186803b158015610c3357600080fd5b505afa158015610c47573d6000803e3d6000fd5b505050506040513d601f19601f82011682018060405250810190610c6b919061163c565b9050670de0b6b3a764000081736780b4681aa8efe530d075897b3a4ff6ca5ed80773ffffffffffffffffffffffffffffffffffffffff166370a08231866040518263ffffffff1660e01b8152600401610cc491906116cf565b60206040518083038186803b158015610cdc57600080fd5b505afa158015610cf0573d6000803e3d6000fd5b505050506040513d601f19601f82011682018060405250810190610d14919061163c565b610d1e9190611879565b610d289190611848565b915050919050565b600080731862a18181346ebd9edaf800804f89190def24a573ffffffffffffffffffffffffffffffffffffffff166377c7b8fc6040518163ffffffff1660e01b815260040160206040518083038186803b158015610d8d57600080fd5b505afa158015610da1573d6000803e3d6000fd5b505050506040513d601f19601f82011682018060405250810190610dc5919061163c565b9050600073110492b31c59716ac47337e616804e3e3adc0b4a73ffffffffffffffffffffffffffffffffffffffff16630902f1ac6040518163ffffffff1660e01b815260040160606040518083038186803b158015610e2357600080fd5b505afa158015610e37573d6000803e3d6000fd5b505050506040513d601f19601f82011682018060405250810190610e5b91906115e9565b509150506000670de0b6b3a76400008373b5b654efba23596ed49fade44f7e67e23d6712e773ffffffffffffffffffffffffffffffffffffffff16634b341aed886040518263ffffffff1660e01b8152600401610eb891906116cf565b60206040518083038186803b158015610ed057600080fd5b505afa158015610ee4573d6000803e3d6000fd5b505050506040513d601f19601f82011682018060405250810190610f08919061163c565b610f129190611879565b610f1c9190611848565b670de0b6b3a764000084731862a18181346ebd9edaf800804f89190def24a573ffffffffffffffffffffffffffffffffffffffff166370a08231896040518263ffffffff1660e01b8152600401610f7391906116cf565b60206040518083038186803b158015610f8b57600080fd5b505afa158015610f9f573d6000803e3d6000fd5b505050506040513d601f19601f82011682018060405250810190610fc3919061163c565b610fcd9190611879565b610fd79190611848565b73110492b31c59716ac47337e616804e3e3adc0b4a73ffffffffffffffffffffffffffffffffffffffff166370a08231886040518263ffffffff1660e01b815260040161102491906116cf565b60206040518083038186803b15801561103c57600080fd5b505afa158015611050573d6000803e3d6000fd5b505050506040513d601f19601f82011682018060405250810190611074919061163c565b61107e91906117f2565b61108891906117f2565b905073110492b31c59716ac47337e616804e3e3adc0b4a73ffffffffffffffffffffffffffffffffffffffff166318160ddd6040518163ffffffff1660e01b815260040160206040518083038186803b1580156110e457600080fd5b505afa1580156110f8573d6000803e3d6000fd5b505050506040513d601f19601f8201168201806040525081019061111c919061163c565b826dffffffffffffffffffffffffffff16826111389190611879565b6111429190611848565b9350505050919050565b60008073235c9e24d3fb2fafd58a2e49d454fdcd2dbf7ff173ffffffffffffffffffffffffffffffffffffffff166377c7b8fc6040518163ffffffff1660e01b815260040160206040518083038186803b1580156111a957600080fd5b505afa1580156111bd573d6000803e3d6000fd5b505050506040513d601f19601f820116820180604052508101906111e1919061163c565b9050600073cd7989894bc033581532d2cd88da5db0a4b1285973ffffffffffffffffffffffffffffffffffffffff16630902f1ac6040518163ffffffff1660e01b815260040160606040518083038186803b15801561123f57600080fd5b505afa158015611253573d6000803e3d6000fd5b505050506040513d601f19601f8201168201806040525081019061127791906115e9565b509150506000670de0b6b3a76400008373a207d69ea6fb967e54baa8639c408c31767ba62d73ffffffffffffffffffffffffffffffffffffffff16634b341aed886040518263ffffffff1660e01b81526004016112d491906116cf565b60206040518083038186803b1580156112ec57600080fd5b505afa158015611300573d6000803e3d6000fd5b505050506040513d601f19601f82011682018060405250810190611324919061163c565b61132e9190611879565b6113389190611848565b670de0b6b3a76400008473235c9e24d3fb2fafd58a2e49d454fdcd2dbf7ff173ffffffffffffffffffffffffffffffffffffffff166370a08231896040518263ffffffff1660e01b815260040161138f91906116cf565b60206040518083038186803b1580156113a757600080fd5b505afa1580156113bb573d6000803e3d6000fd5b505050506040513d601f19601f820116820180604052508101906113df919061163c565b6113e99190611879565b6113f39190611848565b73cd7989894bc033581532d2cd88da5db0a4b1285973ffffffffffffffffffffffffffffffffffffffff166370a08231886040518263ffffffff1660e01b815260040161144091906116cf565b60206040518083038186803b15801561145857600080fd5b505afa15801561146c573d6000803e3d6000fd5b505050506040513d601f19601f82011682018060405250810190611490919061163c565b61149a91906117f2565b6114a491906117f2565b905073cd7989894bc033581532d2cd88da5db0a4b1285973ffffffffffffffffffffffffffffffffffffffff166318160ddd6040518163ffffffff1660e01b815260040160206040518083038186803b15801561150057600080fd5b505afa158015611514573d6000803e3d6000fd5b505050506040513d601f19601f82011682018060405250810190611538919061163c565b826dffffffffffffffffffffffffffff16826115549190611879565b61155e9190611848565b9350505050919050565b60008135905061157781611a8b565b92915050565b60008151905061158c81611aa2565b92915050565b6000815190506115a181611ab9565b92915050565b6000815190506115b681611ad0565b92915050565b6000602082840312156115d2576115d1611a75565b5b60006115e084828501611568565b91505092915050565b60008060006060848603121561160257611601611a75565b5b60006116108682870161157d565b93505060206116218682870161157d565b9250506040611632868287016115a7565b9150509250925092565b60006020828403121561165257611651611a75565b5b600061166084828501611592565b91505092915050565b61167281611967565b82525050565b600061168382611742565b61168d818561174d565b935061169d8185602086016119e4565b6116a681611a7a565b840191505092915050565b6116ba816119bd565b82525050565b6116c9816119d7565b82525050565b60006020820190506116e46000830184611669565b92915050565b600060208201905081810360008301526117048184611678565b905092915050565b600060208201905061172160008301846116b1565b92915050565b600060208201905061173c60008301846116c0565b92915050565b600081519050919050565b600082825260208201905092915050565b600061176982611979565b915061177483611979565b9250817f7fffffffffffffffffffffffffffffffffffffffffffffffffffffffffffffff038313600083121516156117af576117ae611a17565b5b817f80000000000000000000000000000000000000000000000000000000000000000383126000831216156117e7576117e6611a17565b5b828201905092915050565b60006117fd826119bd565b9150611808836119bd565b9250827fffffffffffffffffffffffffffffffffffffffffffffffffffffffffffffffff0382111561183d5761183c611a17565b5b828201905092915050565b6000611853826119bd565b915061185e836119bd565b92508261186e5761186d611a46565b5b828204905092915050565b6000611884826119bd565b915061188f836119bd565b9250817fffffffffffffffffffffffffffffffffffffffffffffffffffffffffffffffff04831182151516156118c8576118c7611a17565b5b828202905092915050565b60006118de82611979565b91506118e983611979565b9250827f80000000000000000000000000000000000000000000000000000000000000000182126000841215161561192457611923611a17565b5b827f7fffffffffffffffffffffffffffffffffffffffffffffffffffffffffffffff01821360008412161561195c5761195b611a17565b5b828203905092915050565b60006119728261199d565b9050919050565b6000819050919050565b60006dffffffffffffffffffffffffffff82169050919050565b600073ffffffffffffffffffffffffffffffffffffffff82169050919050565b6000819050919050565b600063ffffffff82169050919050565b600060ff82169050919050565b60005b83811015611a025780820151818401526020810190506119e7565b83811115611a11576000848401525b50505050565b7f4e487b7100000000000000000000000000000000000000000000000000000000600052601160045260246000fd5b7f4e487b7100000000000000000000000000000000000000000000000000000000600052601260045260246000fd5b600080fd5b6000601f19601f8301169050919050565b611a9481611967565b8114611a9f57600080fd5b50565b611aab81611983565b8114611ab657600080fd5b50565b611ac2816119bd565b8114611acd57600080fd5b50565b611ad9816119c7565b8114611ae457600080fd5b5056fea2646970667358221220d890d12cf746619c6228a6b13b636f023e304fa4f955e82502da50008d1ee51064736f6c63430008070033",
  "linkReferences": {},
  "deployedLinkReferences": {}
}