{
  "_format": "hh-sol-artifact-1",
  "contractName": "ArbBadgerVotingShare",
  "sourceName": "contracts/ArbBadgerVotingShare.sol",
  "abi": [
    {
      "inputs": [],
      "stateMutability": "nonpayable",
      "type": "constructor"
    },
    {
      "inputs": [
        {
          "internalType": "address",
          "name": "_voter",
          "type": "address"
        }
      ],
      "name": "badgerBalanceOf",
      "outputs": [
        {
          "internalType": "uint256",
          "name": "",
          "type": "uint256"
        }
      ],
      "stateMutability": "view",
      "type": "function"
    },
    {
      "inputs": [
        {
          "internalType": "address",
          "name": "_voter",
          "type": "address"
        }
      ],
      "name": "balanceOf",
      "outputs": [
        {
          "internalType": "uint256",
          "name": "",
          "type": "uint256"
        }
      ],
      "stateMutability": "view",
      "type": "function"
    },
    {
      "inputs": [],
      "name": "decimals",
      "outputs": [
        {
          "internalType": "uint8",
          "name": "",
          "type": "uint8"
        }
      ],
      "stateMutability": "pure",
      "type": "function"
    },
    {
      "inputs": [],
      "name": "name",
      "outputs": [
        {
          "internalType": "string",
          "name": "",
          "type": "string"
        }
      ],
      "stateMutability": "pure",
      "type": "function"
    },
    {
      "inputs": [
        {
          "internalType": "address",
          "name": "_voter",
          "type": "address"
        }
      ],
      "name": "swaprBalanceOf",
      "outputs": [
        {
          "internalType": "uint256",
          "name": "",
          "type": "uint256"
        }
      ],
      "stateMutability": "view",
      "type": "function"
    },
    {
      "inputs": [],
      "name": "symbol",
      "outputs": [
        {
          "internalType": "string",
          "name": "",
          "type": "string"
        }
      ],
      "stateMutability": "pure",
      "type": "function"
    },
    {
      "inputs": [],
      "name": "totalSupply",
      "outputs": [
        {
          "internalType": "uint256",
          "name": "",
          "type": "uint256"
        }
      ],
      "stateMutability": "view",
      "type": "function"
    }
  ],
  "bytecode": "0x608060405234801561001057600080fd5b50610bf1806100206000396000f3fe608060405234801561001057600080fd5b506004361061007d5760003560e01c8063313ce5671161005b578063313ce567146100ee57806370a082311461010c5780637127a6e91461013c57806395d89b411461016c5761007d565b806306fdde031461008257806318160ddd146100a05780631cc5edc9146100be575b600080fd5b61008a61018a565b60405161009791906108f0565b60405180910390f35b6100a86101c7565b6040516100b59190610912565b60405180910390f35b6100d860048036038101906100d391906107c2565b610260565b6040516100e59190610912565b60405180910390f35b6100f6610306565b604051610103919061092d565b60405180910390f35b610126600480360381019061012191906107c2565b61030f565b6040516101339190610912565b60405180910390f35b610156600480360381019061015191906107c2565b6103c8565b6040516101639190610912565b60405180910390f35b6101746103da565b60405161018191906108f0565b60405180910390f35b60606040518060400160405280601381526020017f42616467657220566f74696e6720536861726500000000000000000000000000815250905090565b600073bfa641051ba0a0ad1b0acf549a89536a0d76472e73ffffffffffffffffffffffffffffffffffffffff166318160ddd6040518163ffffffff1660e01b815260040160206040518083038186803b15801561022357600080fd5b505afa158015610237573d6000803e3d6000fd5b505050506040513d601f19601f8201168201806040525081019061025b9190610842565b905090565b600073bfa641051ba0a0ad1b0acf549a89536a0d76472e73ffffffffffffffffffffffffffffffffffffffff166370a08231836040518263ffffffff1660e01b81526004016102af91906108d5565b60206040518083038186803b1580156102c757600080fd5b505afa1580156102db573d6000803e3d6000fd5b505050506040513d601f19601f820116820180604052508101906102ff9190610842565b9050919050565b60006012905090565b600061031a82610417565b73bfa641051ba0a0ad1b0acf549a89536a0d76472e73ffffffffffffffffffffffffffffffffffffffff166370a08231846040518263ffffffff1660e01b815260040161036791906108d5565b60206040518083038186803b15801561037f57600080fd5b505afa158015610393573d6000803e3d6000fd5b505050506040513d601f19601f820116820180604052508101906103b79190610842565b6103c19190610964565b9050919050565b60006103d382610417565b9050919050565b60606040518060400160405280600981526020017f4261646765722056530000000000000000000000000000000000000000000000815250905090565b60008073e9c12f06f8affd8719263fe4a81671453220389c73ffffffffffffffffffffffffffffffffffffffff166377c7b8fc6040518163ffffffff1660e01b815260040160206040518083038186803b15801561047457600080fd5b505afa158015610488573d6000803e3d6000fd5b505050506040513d601f19601f820116820180604052508101906104ac9190610842565b90506000733c6bd88cdd2aecf466e22d4ed86db6b8953fdb7273ffffffffffffffffffffffffffffffffffffffff16630902f1ac6040518163ffffffff1660e01b815260040160606040518083038186803b15801561050a57600080fd5b505afa15801561051e573d6000803e3d6000fd5b505050506040513d601f19601f8201168201806040525081019061054291906107ef565b509150506000670de0b6b3a76400008373e9c12f06f8affd8719263fe4a81671453220389c73ffffffffffffffffffffffffffffffffffffffff166370a08231886040518263ffffffff1660e01b815260040161059f91906108d5565b60206040518083038186803b1580156105b757600080fd5b505afa1580156105cb573d6000803e3d6000fd5b505050506040513d601f19601f820116820180604052508101906105ef9190610842565b6105f991906109eb565b61060391906109ba565b733c6bd88cdd2aecf466e22d4ed86db6b8953fdb7273ffffffffffffffffffffffffffffffffffffffff166370a08231876040518263ffffffff1660e01b815260040161065091906108d5565b60206040518083038186803b15801561066857600080fd5b505afa15801561067c573d6000803e3d6000fd5b505050506040513d601f19601f820116820180604052508101906106a09190610842565b6106aa9190610964565b9050733c6bd88cdd2aecf466e22d4ed86db6b8953fdb7273ffffffffffffffffffffffffffffffffffffffff166318160ddd6040518163ffffffff1660e01b815260040160206040518083038186803b15801561070657600080fd5b505afa15801561071a573d6000803e3d6000fd5b505050506040513d601f19601f8201168201806040525081019061073e9190610842565b826dffffffffffffffffffffffffffff168261075a91906109eb565b61076491906109ba565b9350505050919050565b60008135905061077d81610b5f565b92915050565b60008151905061079281610b76565b92915050565b6000815190506107a781610b8d565b92915050565b6000815190506107bc81610ba4565b92915050565b6000602082840312156107d8576107d7610b49565b5b60006107e68482850161076e565b91505092915050565b60008060006060848603121561080857610807610b49565b5b600061081686828701610783565b935050602061082786828701610783565b9250506040610838868287016107ad565b9150509250925092565b60006020828403121561085857610857610b49565b5b600061086684828501610798565b91505092915050565b61087881610a45565b82525050565b600061088982610948565b6108938185610953565b93506108a3818560208601610ab8565b6108ac81610b4e565b840191505092915050565b6108c081610a91565b82525050565b6108cf81610aab565b82525050565b60006020820190506108ea600083018461086f565b92915050565b6000602082019050818103600083015261090a818461087e565b905092915050565b600060208201905061092760008301846108b7565b92915050565b600060208201905061094260008301846108c6565b92915050565b600081519050919050565b600082825260208201905092915050565b600061096f82610a91565b915061097a83610a91565b9250827fffffffffffffffffffffffffffffffffffffffffffffffffffffffffffffffff038211156109af576109ae610aeb565b5b828201905092915050565b60006109c582610a91565b91506109d083610a91565b9250826109e0576109df610b1a565b5b828204905092915050565b60006109f682610a91565b9150610a0183610a91565b9250817fffffffffffffffffffffffffffffffffffffffffffffffffffffffffffffffff0483118215151615610a3a57610a39610aeb565b5b828202905092915050565b6000610a5082610a71565b9050919050565b60006dffffffffffffffffffffffffffff82169050919050565b600073ffffffffffffffffffffffffffffffffffffffff82169050919050565b6000819050919050565b600063ffffffff82169050919050565b600060ff82169050919050565b60005b83811015610ad6578082015181840152602081019050610abb565b83811115610ae5576000848401525b50505050565b7f4e487b7100000000000000000000000000000000000000000000000000000000600052601160045260246000fd5b7f4e487b7100000000000000000000000000000000000000000000000000000000600052601260045260246000fd5b600080fd5b6000601f19601f8301169050919050565b610b6881610a45565b8114610b7357600080fd5b50565b610b7f81610a57565b8114610b8a57600080fd5b50565b610b9681610a91565b8114610ba157600080fd5b50565b610bad81610a9b565b8114610bb857600080fd5b5056fea2646970667358221220e26a9f69a1498f0340be955e2b86141d074576bc993ac7d4b16d6648a15933c864736f6c63430008070033",
  "linkReferences": {},
  "deployedLinkReferences": {}
}